:100000000C9418010C9435010C9435010C94910852
:100010000C9435010C9435010C9435010C94350188
:100020000C9435010C944F090C9435010C94350156
:100030000C9435010C9435010C9435010C94350168
:100040000C9435010C9435010C9435010C94350158
:100050000C9435010C9435010C9435010C94350148
:100060000C9435010C943501000000000000004F95
:1000700000000007000700147F147F14242A7F2A41
:10008000122313086462364955222000050300003C
:10009000001C2241000041221C0014083E081408E4
:1000A000083E0808503000000008080808080060F2
:1000B00060000020100804023E5149453E00427F86
:1000C000400042615149462141454B311814127F8D
:1000D0001027454545393C4A494930017109050316
:1000E0003649494936064949291E0036360000007E
:1000F0005636000008142241001414141414004150
:1001000022140802015109063E415D551E7E11115F
:10011000117E7F494949363E414141227F4141227A
:100120001C7F494949417F090909013E4149497AF2
:100130007F0808087F00417F41002040413F017F48
:10014000081422417F404040407F020C027F7F0420
:1001500008107F3E4141413E7F090909063E415159
:10016000215E7F09192946264949493201017F014B
:10017000013F4040403F1F2040201F3F4038403F4C
:100180006314081463070870080761514945430068
:100190007F41410002040810200041417F00040219
:1001A0000102044040404040000003050020545438
:1001B00054787F44444438384444444438444444A4
:1001C0007F385454541804047E0505085454543C94
:1001D0007F0804047800447D40002040443D007FB7
:1001E0001028440000417F40007C047C04787C0897
:1001F00004047838444444387C1414140808141453
:10020000147C7C08040400485454542404043F44DF
:10021000443C4040207C1C2040201C3C4030403C62
:1002200044281028440C5050503C4464544C440022
:1002300011241FBECFEFD8E0DEBFCDBF12E0A0E09B
:10024000B1E0EEE6FDE102C005900D92AE30B107DF
:10025000D9F722E0AEE0B2E001C01D92AB32B207A6
:10026000E1F70E9433040C94B50E0C940000ECEB03
:10027000F0E0108294EA908390819923ECF79091BA
:10028000B900987F9830A9F48093BB0084E88093EC
:10029000BC00ECEBF0E080818823ECF72091B90002
:1002A000287F283149F081E090E0203439F480E063
:1002B000089581E090E0089580E090E008958093B3
:1002C000BB0084E88093BC00ECEBF0E080818823E5
:1002D000ECF79091B900987F21E030E0983211F46A
:1002E00020E030E0C90108958AE08093B80080E002
:1002F00090E00895CF92DF92EF92FF920F931F93B9
:10030000CF93DF93C62F6A01122F0E943701892BEA
:10031000E1F48C2F0E945F017C01892BD1F4112321
:1003200081F0E6011150012F10E00F5F1F4F0C0DFF
:100330001D1D89910E945F01892B79F4C017D10797
:10034000C1F784E98093BC000BC0EE24E394F12C48
:1003500007C0EE24E394F12C03C0EE24E394F12CC7
:10036000C701DF91CF911F910F91FF90EF90DF9028
:10037000CF900895EF92FF920F931F93CF93DF9347
:10038000C82FF62E8A01E22E0E943701892BE1F553
:100390008F2D0E945F01892BD1F58C2F81600E94E7
:1003A0003701BC01892BB1F54E2D50E04150510968
:1003B00014161506ACF430E0ECEBF0E024ECCBEBDB
:1003C000D0E0D801A30FB11D208390819923ECF7D1
:1003D00088818C933F5F832F90E0841795078CF37F
:1003E000EE2DF0E03197E00FF11F84E88093BC0020
:1003F000ACEBB0E08C918823ECF78091BB0080835C
:1004000084E98093BC0008C061E070E005C061E051
:1004100070E002C061E070E0CB01DF91CF911F91ED
:100420000F91FF90EF900895EF92FF920F931F931B
:10043000CF93DF93C82FF62E8A01E22E0E94370158
:10044000892B09F043C08F2D0E945F01892B09F091
:1004500040C083EC99E00197F1F700C000008C2FB9
:1004600081600E943701BC01892BB1F54E2D50E00F
:100470004150510914161506ACF430E0ECEBF0E0F5
:1004800024ECCBEBD0E0D801A30FB11D20839081E9
:100490009923ECF788818C933F5F832F90E084173A
:1004A00095078CF3EE2DF0E03197E00FF11F84E813
:1004B0008093BC00ACEBB0E08C918823ECF780918A
:1004C000BB00808384E98093BC0008C061E070E0D9
:1004D00005C061E070E002C061E070E0CB01DF9137
:1004E000CF911F910F91FF90EF900895E8E6F0E013
:1004F000808181608083EBE6F0E080818160808391
:1005000080E090E008958CE58CBD81E08DBD80E0B9
:1005100090E0089580E58CBD80E090E008958CE542
:100520008CBD80E090E00895FC0120812EBD0DB4CB
:1005300007FEFDCF2EB5FC01208380E090E00895FA
:100540001092C5008CE08093C400E0ECF0E0808164
:100550008260808386E08093C20088E18093C1003E
:1005600080E090E00895CF93C82F8A3019F48DE091
:100570000E94B302E0ECF0E0908195FFFDCFC093C4
:10058000C600CF910895E0ECF0E080818823ECF77D
:100590008091C6000895CF93DF9300D0CDB7DEB72A
:1005A00022E0AE014F5F5F4F6FEF80E80E94BA011B
:1005B000892BD9F4898190E0982F88272A81822B72
:1005C00080359041A9F419821A8222E0AE014F5F72
:1005D0005F4F62E080E80E947A0131E020E0892BE1
:1005E00009F430E0832F922F05C081E090E002C033
:1005F00081E090E00F900F90DF91CF9108958F925E
:100600009F92AF92BF92CF92DF92EF92FF920F93A1
:100610001F93CF93DF9300D0CDB7DEB76C017B0182
:1006200022E0AE014F5F5F4F60E080E80E9414025D
:100630008C01892B59F5A981B0E0BA2FAA278A81AC
:10064000A82B25EA30E00E94900B0E94860A20E049
:100650003FEF4FE757E40E94E50920E030E040E239
:1006600052E40E9478094B015C010E94570AF6018E
:10067000608320E030E040E251E4C501B4010E9413
:10068000140B0E94570AF701608302C001E010E0DA
:10069000C8010F900F90DF91CF911F910F91FF90A4
:1006A000EF90DF90CF90BF90AF909F908F90089584
:1006B000EF92FF920F931F93CF93DF9300D0CDB7AC
:1006C000DEB77C0122E0AE014F5F5F4F61E080E862
:1006D0000E9414028C01892BB9F4A981B0E0BA2FD1
:1006E000AA278A81A82B24E630E00E94900B0E9462
:1006F000860A20E03FEF4FE757E40E94E5090E9499
:10070000570AF701608302C001E010E0C8010F90B2
:100710000F90DF91CF911F910F91FF90EF9008956F
:1007200087EA91E60197F1F700C00000539A549AC6
:1007300052982098229A2A98219A299A2498239AA2
:10074000259A0E948302892B01F50E94A002892B21
:10075000F9F4E5E2F2E08EE091E09383828380E0B9
:1007600091E0918380830E947401892BA1F40E94FF
:10077000CB02892B99F40E94760231E020E0892B8C
:1007800009F430E0832F922F089581E090E00895DE
:1007900081E090E0089581E090E0089581E090E0AC
:1007A00008953A9A399A389A569A0E9442060E94B7
:1007B000640541E251E060E070E081E090E00E9479
:1007C00089055E9A08950F931F93CF93DF93CDB75A
:1007D000DEB7A1970FB6F894DEBF0FBECDBFBE0146
:1007E0006E5F7F4FCE0101960E94FF02892B21F0A0
:1007F00088E391E00E94AD0BCE0103960E9458035E
:10080000892B21F083E591E00E94AD0B8B811F9233
:100810008F938A811F928F9389811F928F938BE68A
:1008200091E09F938F938E010C5F1F4F1F930F9347
:100830000E94DD0B0E946405A80160E070E080E08A
:1008400090E00E9489050FB6F894DEBF0FBECDBFC1
:10085000A1960FB6F894DEBF0FBECDBFDF91CF914A
:100860001F910F910895CF93DF93CDB7DEB7A39774
:100870000FB6F894DEBF0FBECDBF85E0ECE1F1E02E
:10088000DE01119601900D928A95E1F70E94900386
:10089000892B79F028E090E18BB182278BB98BB15D
:1008A00089278BB9E3EDF0E33197F1F700C0000041
:1008B000F3CF78945B9A4A9945C087EA91E601970D
:1008C000F1F700C000004A993DC00E94D1034FE7F4
:1008D00051E060E070E080E090E00E9489054AE825
:1008E00051E060E070E081E090E00E9489054BE912
:1008F00051E060E070E082E090E00E94890548EA03
:1009000051E060E070E083E090E00E9489055C9A2D
:100910005B9A81E00E949607E3ECF9E03197F1F7EA
:1009200000C0000080E00E94820781E00E94DE0794
:1009300086E00E94AA06682F606886E00E94B706DB
:100940002A9AFFCF88EB91E00E94AD0B0E94D10361
:100950000E94E30361E0CE0101960E94FB082A9AFF
:10096000612C0F2EFBE1EF2EF2E0FF2EF02D77240D
:1009700073940F2EFCE04F2EF02D512C0F2EFBEC1C
:100980008F2EF1E09F2EF02D6E01F6E0CF0ED11CE0
:100990000F2EF6EEAF2EF1E0BF2EF02DF7011082F4
:1009A0004A9B70824AE0B70180E00E947306042DE2
:1009B000152D83EC99E00197F1F700C000000E942B
:1009C000C8080E94BC08811103C00150110989F7B1
:1009D0000E94BC08823021F00E94BC08843009F4D7
:1009E0005C9A0E94BC08833029F00E94BC088430C5
:1009F00009F058C080E00E94BF0881115B9A662010
:100A000009F450C083E00E94BF08082F82E00E94D2
:100A1000BF08182F872D0E94BF081F920F931F92A7
:100A20001F931F928F939F928F92DF92CF920E947B
:100A3000DD0BA60160E070E082E090E00E94890595
:100A400080E00E94BF080FB6F894DEBF0FBECDBF96
:100A5000882341F04FED51E060E070E083E090E0EA
:100A60000E94890583E00E94BF08682E82E00E94F0
:100A7000BF08082F872D0E94BF08182F80E00E9412
:100A8000BF081F926F921F920F931F921F931F9286
:100A90008F93BF92AF920E94970B0FB6F894DEBF70
:100AA0000FBECDBF80E00E94C5083FE986E891E017
:100AB000315080409040E1F700C000005C985B98A6
:100AC0000E94E303672C6ACFFF920F931F93CF938B
:100AD000DF9310E06894FF24F7F800E0812F0E9474
:100AE0000D0680E00E94120680E00E942206CF2DB3
:100AF000D02F80E00E94EA052197D9F71F5F1430BC
:100B000069F780E090E0DF91CF911F910F91FF9006
:100B10000895AF92BF92CF92DF92EF92FF920F9320
:100B20001F93CF93DF93C62F6A010E940D068C2F6F
:100B30000E941206E12CF12CA12CB12C20C0CA2D50
:100B4000DB2D0C0D1D1DF801808190E08097FC01CC
:100B5000EE0FFF1FEE0FFF1FE80FF91FEC0FFD1F39
:100B6000E859FF4F84910E94EA052196C530D105CE
:100B700051F780E00E94EA05FFEFEF1AFF0A8701B4
:100B8000F60101900020E9F73197EC19FD09EE1606
:100B9000FF06A8F280E090E0DF91CF911F910F91C6
:100BA000FF90EF90DF90CF90BF90AF900895CF93DC
:100BB000DF931F92CDB7DEB789830E948F024298E0
:100BC0004098CE0101960E949402429A0F90DF91C4
:100BD000CF910895CF93DF931F92CDB7DEB789836E
:100BE0000E948F024298409ACE0101960E94940280
:100BF0004098429A0F90DF91CF910895419887EAEB
:100C000091E60197F1F700C00000419A87EA91E66A
:100C10000197F1F700C0000008958F70806B0E946B
:100C2000D7050895CF93C82F982F9F77892F829546
:100C30008F7080610E94D7058C2F8F700E94D7051E
:100C4000CF9108958F7380640E94D70508958FEA2D
:100C50000E94D7050895CF938E3108F48EE1C82FF6
:100C6000893208F0C8E281E80E94D7058C2F809570
:100C70008F730E94D7058C2FCF91089586EA0E942A
:100C8000D70508950E94FE05409880EA0E94D70586
:100C90000E943E0688EC0E94D70582EA0E94D70592
:100CA0008FE20E94D70588EF0E94D70580E00E945E
:100CB000D70581E20E94D7058EE10E942B060E9493
:100CC00027060895CF93DF931F92CDB7DEB78983B0
:100CD0000E948A02CE0101960E94940289810F909F
:100CE000DF91CF910895EF92FF920F931F93CF93CF
:100CF000DF937B01C42F2998886A0E9462068FEFD8
:100D00008C0FCC2369F0E701082F10E00F5F1F4F15
:100D10000E0D1F1D89910E946206C017D107D1F7E1
:100D2000299ADF91CF911F910F91FF90EF90089535
:100D3000299880E60E94620680E00E946206299A55
:100D40000895299880E50E94620683E70E94620662
:100D5000299A089529980E94620680E00E946206FE
:100D6000299A089583E00E94AA068E5F0895CF9382
:100D7000DF93D62F2998803240F4805E0E9462066D
:100D8000C82F8D2F0E94620610C09FE1980F9330EC
:100D900048F08F3F39F00E946206C82F8D2F0E94C5
:100DA000620603C00E946206C82F299A8C2FDF9129
:100DB000CF91089560E787E00E94B7068077089595
:100DC000CF93C82F80E00E94AA06837F6C2F660F06
:100DD000660F682B80E00E94B706CF9108951F939D
:100DE000CF93DF93C82F162F863018F08F3F39F13D
:100DF00035C082E00E94AA0621E030E0A90102C0CD
:100E0000440F551FCA95E2F7EA01642F682B82E070
:100E10000E94B706112349F081E00E94AA066C2FB8
:100E2000682B81E00E94B70619C081E00E94AA06E3
:100E3000C095682F6C2381E00E94B7060FC06FE356
:100E400082E00E94B706112329F06FE381E00E943F
:100E5000B70604C060E081E00E94B706DF91CF9141
:100E60001F910895CF93C82F863018F08F3FD9F087
:100E700022C082E00E94AA0661E070E002C0660F14
:100E8000771FCA95E2F7C62FC095682F6C2382E0C2
:100E90000E94B70681E00E94AA06682F6C2381E0B9
:100EA0000E94B70608C060E082E00E94B70660E0DA
:100EB00081E00E94B706CF910895482F9B01369597
:100EC0002795A3E1B3E80E94810B0024880F991FA6
:100ED000001C880F991F001C892F902D2FEF280FC1
:100EE0002295207F622F642B84E00E94B70608952C
:100EF0006EEF680F83E00E94B70608958F5E0E9430
:100F0000B7060895813049F480E00E94AA06682F50
:100F1000616080E00E94B706089580E00E94AA0602
:100F2000682F6E7F80E00E94B7060895813049F4F3
:100F300080E00E94AA06682F626080E00E94B706E7
:100F4000089580E00E94AA06682F6D7F80E00E94CD
:100F5000B7060895682F85E00E94B7060895682FA8
:100F60006F738CE10E94B70608958DE10E94AA0676
:100F7000682F64608DE10E94B70608958DE10E949C
:100F8000AA06682F62608DE10E94B706089560E0AE
:100F900081EE0E94B706089560E08FEF0E94B706C9
:100FA00008950E94CC078E70869508950E94D107FF
:100FB00091E0873009F090E0892F0895813049F45D
:100FC00086E00E94AA06682F606186E00E94B7064C
:100FD000089586E00E94AA06682F6F7E86E00E9430
:100FE000B7060895CF92DF92EF92FF920F931F936F
:100FF000CF93DF93F82E6B0186E0F81651F08F1532
:1010000020F081E08F15E0F004C088E0F81651F080
:1010100017C00E94B206E82E29988AE08F0D0E9420
:1010200062060FC00E94D107F82E86E08F15E0F00F
:101030000E949806E82E299881E60E94620601C067
:10104000E12C9FEF9E0DEE2081F0E601092F10E0CC
:101050000F5F1F4F0C0D1D1D80E00E9462068993DB
:10106000C017D107C9F701C0E12C299A8E2D90E055
:101070009F29DF91CF911F910F91FF90EF90DF900B
:10108000CF900895BC0188E00E94F2070895EF9286
:10109000FF920F931F93CF93DF93C82F7B01D42F21
:1010A000863039F018F4823060F403C0873071F074
:1010B00008C00E94B206D82F29988AE28C0F0E949D
:1010C00062069FEF9D0FD11106C012C0299880EAD9
:1010D0000E946206F6CFE701092F10E00F5F1F4F55
:1010E0000E0D1F1D89910E946206C017D107D1F70E
:1010F000299ADF91CF911F910F91FF90EF90089562
:10110000863018F4823018F006C0863049F440E08A
:101110000E9447080895FB016081865F0E94B70620
:1011200008951F920F920FB60F9211242F933F93A1
:101130004F935F936F937F938F939F93AF93BF93DF
:10114000EF93FF9388EF91E00E94AD0B189903C0D5
:1011500081E080931902FF91EF91BF91AF919F9130
:101160008F917F916F915F914F913F912F910F9050
:101170000FBE0F901F90189580910E020895E82FD2
:10118000F0E0E15FFD4F8081089580930E020895A5
:10119000189930C00E94DA06803279F018F4803154
:1011A00031F026C0803489F08036D9F021C00E9409
:1011B000C70781E080930E021BC082E080930E027D
:1011C00017C08FE092E00E9442080E94D607882351
:1011D000C1F383E080930E020BC08FE092E00E9487
:1011E00042080E94D6078823C1F384E080930E0250
:1011F0001092190208951F93CF93DF93EC01162FDD
:101200008FEF0E94320761E080E00E94EF0683E0EA
:101210000E94E0066AEF70E08FE00E945D0785E0C3
:101220000E947807BE0186E00E948008BE0180E02F
:101230000E9480080E94BE078DE10E94AA068111CB
:1012400009C08CE10E94AA06811104C00E94A10677
:101250000E94BE070E94B5078FE30E94AF071111DD
:1012600004C080E00E94820707C081E00E948207DC
:101270006AE080E00E947E0788E20E94AA0781E07F
:101280000E94960783EF91E00197F1F700C00000FC
:1012900080E00E94C508DF91CF911F9108951F92B1
:1012A0000F920FB60F9211242F933F934F935F939A
:1012B0006F937F938F939F93AF93BF93EF93FF931E
:1012C00081E080931A0282E092E00E94AD0BFF91D0
:1012D000EF91BF91AF919F918F917F916F915F91AE
:1012E0004F913F912F910F900FBE0F901F90189527
:1012F0005058BB27AA270E9490090C94DA0A0E9432
:10130000CC0A38F00E94D30A20F039F49F3F19F438
:1013100026F40C94C90A0EF4E095E7FB0C94C30A7A
:10132000E92F0E94EB0A58F3BA1762077307840784
:10133000950720F079F4A6F50C940D0B0EF4E095CA
:101340000B2EBA2FA02D0B01B90190010C01CA017F
:10135000A0011124FF27591B99F0593F50F4503E2A
:1013600068F11A16F040A22F232F342F4427585F1C
:10137000F3CF469537952795A795F0405395C9F734
:101380007EF41F16BA0B620B730B840BBAF09150EC
:10139000A1F0FF0FBB1F661F771F881FC2F70EC08B
:1013A000BA0F621F731F841F48F48795779567955E
:1013B000B795F7959E3F08F0B0CF9395880F08F04A
:1013C0009927EE0F9795879508950E94F9090C9437
:1013D000DA0A0E94D30A58F00E94CC0A40F029F49D
:1013E0005F3F29F00C94C30A51110C940E0B0C941E
:1013F000C90A0E94EB0A68F39923B1F3552391F3CC
:10140000951B550BBB27AA2762177307840738F073
:101410009F5F5F4F220F331F441FAA1FA9F335D0D0
:101420000E2E3AF0E0E832D091505040E695001C84
:10143000CAF72BD0FE2F29D0660F771F881FBB1F3E
:10144000261737074807AB07B0E809F0BB0B802D1C
:10145000BF01FF2793585F4F3AF09E3F510578F048
:101460000C94C30A0C940E0B5F3FE4F3983ED4F344
:10147000869577956795B795F7959F5FC9F7880F1C
:10148000911D9695879597F90895E1E0660F771F6E
:10149000881FBB1F621773078407BA0720F0621BFF
:1014A000730B840BBA0BEE1F88F7E09508950E942A
:1014B000F30A88F09F5798F0B92F9927B751B0F0E9
:1014C000E1F0660F771F881F991F1AF0BA95C9F7C8
:1014D00014C0B13091F00E940D0BB1E008950C944E
:1014E0000D0B672F782F8827B85F39F0B93FCCF301
:1014F000869577956795B395D9F73EF49095809545
:10150000709561957F4F8F4F9F4F0895E89409C064
:1015100097FB3EF490958095709561957F4F8F4F26
:101520009F4F9923A9F0F92F96E9BB279395F6953C
:10153000879577956795B795F111F8CFFAF4BB0FBA
:1015400011F460FF1BC06F5F7F4F8F4F9F4F16C01E
:10155000882311F096E911C0772321F09EE8872FA8
:10156000762F05C0662371F096E8862F70E060E064
:101570002AF09A95660F771F881FDAF7880F9695DD
:10158000879597F9089597F99F6780E870E060E084
:1015900008959FEF80EC089500240A94161617060C
:1015A00018060906089500240A9412161306140654
:1015B00005060895092E0394000C11F4882352F0B7
:1015C000BB0F40F4BF2B11F460FF04C06F5F7F4F6F
:1015D0008F4F9F4F089557FD9058440F551F59F056
:1015E0005F3F71F04795880F97FB991F61F09F3F10
:1015F00079F087950895121613061406551FF2CF39
:101600004695F1DF08C0161617061806991FF1CF88
:1016100086957105610508940895E894BB276627AF
:101620007727CB0197F908950E94270B0C94DA0ACB
:101630000E94CC0A38F00E94D30A20F0952311F0C2
:101640000C94C30A0C94C90A11240C940E0B0E942A
:10165000EB0A70F3959FC1F3950F50E0551F629F01
:10166000F001729FBB27F00DB11D639FAA27F00DFB
:10167000B11DAA1F649F6627B00DA11D661F829F22
:101680002227B00DA11D621F739FB00DA11D621F07
:10169000839FA00D611D221F749F3327A00D611D24
:1016A000231F849F600D211D822F762F6A2F112406
:1016B0009F5750409AF0F1F088234AF0EE0FFF1F39
:1016C000BB1F661F771F881F91505040A9F79E3F90
:1016D000510580F00C94C30A0C940E0B5F3FE4F3A9
:1016E000983ED4F3869577956795B795F795E795E6
:1016F0009F5FC1F7FE2B880F911D9695879597F9EF
:101700000895A29FB001B39FC001A39F700D811DDA
:101710001124911DB29F700D811D1124911D0895FA
:101720000E94810BB7FF0895821B930B0895A0E0E0
:10173000B0E0EDE9FBE00C948E0EAE014B5F5F4F25
:10174000FA0161917191AF01809127029091280275
:101750000E94000CE2E00C94AA0E0F931F93CF930B
:10176000DF93E0912702F0912802238121FF1BC023
:101770008C01D0E0C0E0F80181918F0160912702D7
:1017800070912802DB011896ED91FC91199788233E
:1017900031F00995892B79F3DFEFCFEFECCF8AE0B9
:1017A0000995892B19F08FEF9FEF02C08D2F9C2F89
:1017B000DF91CF911F910F910895AEE0B0E0E3EE7D
:1017C000FBE00C948C0E0D891E8986E08C831A83B5
:1017D00009838FEF9FE79E838D83AE01475E5F4F46
:1017E0006F89788DCE0101960E94000C2F8138857B
:1017F000F801E20FF31F10822E96E4E00C94A80E7D
:10180000ACE0B0E0E6E0FCE00C947E0E7C016B0105
:101810008A01FC0117821682838181FFBDC1CE013E
:1018200001964C01F7019381F60193FD859193FF99
:1018300081916F01882309F4ABC1853239F493FD9E
:10184000859193FF81916F01853229F4B70190E072
:101850000E94E80DE7CF512C312C20E02032A0F47B
:101860008B3269F030F4803259F0833269F42061B0
:101870002CC08D3239F0803339F4216026C02260CB
:10188000246023C0286021C027FD27C030ED380F19
:101890003A3078F426FF06C0FAE05F9E300D11243E
:1018A000532E13C08AE0389E300D1124332E20624F
:1018B0000CC08E3221F426FD6BC1206406C08C362C
:1018C00011F4206802C0883641F4F60193FD859139
:1018D00093FF81916F018111C1CF982F9F7D955406
:1018E000933028F40C5F1F4FFFE3F9830DC083365C
:1018F00031F0833771F0833509F05BC022C0F80105
:10190000808189830E5F1F4F44244394512C5401DE
:1019100015C03801F2E06F0E711CF801A080B18093
:1019200026FF03C0652D70E002C06FEF7FEFC50199
:101930002C870E94DD0D2C0183012C852F77222E10
:1019400017C03801F2E06F0E711CF801A080B18061
:1019500026FF03C0652D70E002C06FEF7FEFC50169
:101960002C870E94D20D2C012C852068222E830109
:1019700023FC1BC0832D90E048165906B0F4B70134
:1019800080E290E00E94E80D3A94F4CFF50127FC44
:10199000859127FE81915F01B70190E00E94E80DDB
:1019A00031103A94F1E04F1A51084114510471F783
:1019B000E5C0843611F0893639F5F80127FF07C0F4
:1019C00060817181828193810C5F1F4F08C06081AB
:1019D0007181072E000C880B990B0E5F1F4F2F761D
:1019E000722E97FF09C090958095709561957F4FF5
:1019F0008F4F9F4F2068722E2AE030E0A4010E9492
:101A0000200EA82EA81844C0853729F42F7EB22EA8
:101A10002AE030E025C0F22FF97FBF2E8F36C1F0CB
:101A200018F4883579F0B4C0803719F0883721F080
:101A3000AFC02F2F2061B22EB4FE0DC08B2D84605D
:101A4000B82E09C024FF0AC09F2F9660B92E06C089
:101A500028E030E005C020E130E002C020E132E0C3
:101A6000F801B7FE07C060817181828193810C5FAC
:101A70001F4F06C06081718180E090E00E5F1F4FB4
:101A8000A4010E94200EA82EA818FB2DFF777F2E00
:101A900076FE0BC0372D3E7FA51450F474FE0AC0AD
:101AA00072FC08C0372D3E7E05C0BA2C372D03C00E
:101AB000BA2C01C0B52C34FF0DC0FE01EA0DF11D9A
:101AC0008081803311F4397E09C032FF06C0B3949F
:101AD000B39404C0832F867809F0B39433FD13C008
:101AE00030FF06C05A2CB31418F4530C5B18B32CF7
:101AF000B31468F4B70180E290E03C870E94E80DDF
:101B0000B3943C85F5CFB31410F43B1801C0312CCD
:101B100034FF12C0B70180E390E03C870E94E80DDB
:101B20003C8532FF17C031FD03C088E790E002C05A
:101B300088E590E0B7010CC0832F867859F031FF1B
:101B400002C08BE201C080E237FD8DE2B70190E078
:101B50000E94E80DA51438F4B70180E390E00E94DC
:101B6000E80D5A94F7CFAA94F401EA0DF11D808193
:101B7000B70190E00E94E80DA110F5CF332009F4E1
:101B800051CEB70180E290E00E94E80D3A94F6CF82
:101B9000F7018681978102C08FEF9FEF2C96E2E1DB
:101BA0000C949A0EFC010590615070400110D8F71A
:101BB000809590958E0F9F1F0895FC016150704095
:101BC00001900110D8F7809590958E0F9F1F089572
:101BD0000F931F93CF93DF93FB01238121FD03C05C
:101BE0008FEF9FEF28C022FF16C0468157812481C6
:101BF00035814217530744F4A081B1819D012F5FC5
:101C00003F4F318320838C93268137812F5F3F4F55
:101C10003783268310C0EB01092F182F0084F1852C
:101C2000E02D0995892BE1F68E819F8101969F8396
:101C30008E83812F902FDF91CF911F910F91089567
:101C4000FA01AA27283051F1203181F1E8946F93ED
:101C50006E7F6E5F7F4F8F4F9F4FAF4FB1E03ED093
:101C6000B4E03CD0670F781F891F9A1FA11D680F31
:101C7000791F8A1F911DA11D6A0F711D811D911D64
:101C8000A11D20D009F468943F912AE0269F1124D9
:101C90003019305D3193DEF6CF010895462F47703D
:101CA000405D4193B3E00FD0C9F7F6CF462F4F7098
:101CB000405D4A3318F0495D31FD4052419302D0F6
:101CC000A9F7EACFB4E0A69597958795779567959C
:101CD000BA95C9F700976105710508959B01AC019C
:101CE0000A2E06945795479537952795BA95C9F7C3
:101CF000620F731F841F951FA01D08952F923F929E
:101D00004F925F926F927F928F929F92AF92BF920B
:101D1000CF92DF92EF92FF920F931F93CF93DF93B7
:101D2000CDB7DEB7CA1BDB0B0FB6F894DEBF0FBE14
:101D3000CDBF09942A88398848885F846E847D8461
:101D40008C849B84AA84B984C884DF80EE80FD8063
:101D50000C811B81AA81B981CE0FD11D0FB6F894D9
:0E1D6000DEBF0FBECDBFED010895F894FFCF9A
:101D6E0000000001000000000000C302000000009F
:101D7E00000200000000B30200000000EB01EB02C5
:101D8E00EB68656C6C6F2069736D207472616E7395
:101D9E0063656976657221006661696C656420729F
:101DAE00656164696E672074656D706572617475C6
:101DBE007265006661696C65642072656164696E46
:101DCE00672068756D6964697479006C6F63616C06
:101DDE003A202025642C25644320256425250054B3
:101DEE00657374206D6F64653A00436F6E73746132
:101DFE006E742063617272696572004630203D20F8
:101E0E00323430324D487A00524620706F77657208
:101E1E00203D203064426D00636F6E63656E747298
:101E2E0061746F7220626F6172640073656E736F9E
:101E3E00723A2025642C25644320256425250068EC
:101E4E00656C6C6F210064617461202564202564CB
:101E5E002025642025640A00726164696F2069720E
:0E1E6E0071007469636B2C207461636B00005B
:00000001FF
