:100000000C9418010C9435010C9435010C943501B5
:100010000C9435010C9435010C9435010C94350188
:100020000C9435010C9435010C9435010C94350178
:100030000C9435010C9435010C9435010C94350168
:100040000C9435010C9435010C9435010C94350158
:100050000C9435010C9435010C9435010C94350148
:100060000C9435010C943501000000000000004F95
:1000700000000007000700147F147F14242A7F2A41
:10008000122313086462364955222000050300003C
:10009000001C2241000041221C0014083E081408E4
:1000A000083E0808503000000008080808080060F2
:1000B00060000020100804023E5149453E00427F86
:1000C000400042615149462141454B311814127F8D
:1000D0001027454545393C4A494930017109050316
:1000E0003649494936064949291E0036360000007E
:1000F0005636000008142241001414141414004150
:1001000022140802015109063E415D551E7E11115F
:10011000117E7F494949363E414141227F4141227A
:100120001C7F494949417F090909013E4149497AF2
:100130007F0808087F00417F41002040413F017F48
:10014000081422417F404040407F020C027F7F0420
:1001500008107F3E4141413E7F090909063E415159
:10016000215E7F09192946264949493201017F014B
:10017000013F4040403F1F2040201F3F4038403F4C
:100180006314081463070870080761514945430068
:100190007F41410002040810200041417F00040219
:1001A0000102044040404040000003050020545438
:1001B00054787F44444438384444444438444444A4
:1001C0007F385454541804047E0505085454543C94
:1001D0007F0804047800447D40002040443D007FB7
:1001E0001028440000417F40007C047C04787C0897
:1001F00004047838444444387C1414140808141453
:10020000147C7C08040400485454542404043F44DF
:10021000443C4040207C1C2040201C3C4030403C62
:1002200044281028440C5050503C4464544C440022
:1002300011241FBECFEFD8E0DEBFCDBF11E0A0E09C
:10024000B1E0E6E6F9E002C005900D92A833B107EF
:10025000D9F721E0A8E3B1E001C01D92AF33B207A6
:10026000E1F70E94AC010C94B1040C9400008AE008
:100270008093B80080E090E008958CE58CBD81E02B
:100280008DBD80E090E00895FC0120812EBD0DB46D
:1002900007FEFDCF2EB5FC01208380E090E008959D
:1002A0001092C5008CE08093C400E0ECF0E0808107
:1002B0008260808386E08093C20088E18093C100E1
:1002C00080E090E00895CF93C82F8A3019F48DE034
:1002D0000E946301E0ECF0E0908195FFFDCFC093B8
:1002E000C600CF910895E0ECF0E080818823ECF720
:1002F0008091C6000895539A549A3A9A399A389A36
:10030000569A2098219A229A239A259A0E943D0172
:100310000E94BD020E9450018EE091E090933C014A
:1003200080933B0180E091E090933A018093390102
:100330000E94370180E090E0089528E090E18BB1C1
:1003400082278BB98BB189278BB9E3EDF0E3319725
:10035000F1F700C00000F3CFCF93DF9300D000D0BF
:100360001F92CDB7DEB785E0ECE1F1E0DE0111963A
:1003700001900D928A95E1F70E947B01892B11F083
:100380000E949D010E94E3015E9A41E251E060E01B
:1003900070E081E090E00E94090261E0CE010196E8
:1003A0000E944E0408E010E10E94DD028BB180271C
:1003B0008BB98BB181278BB983E294EF0197F1F769
:1003C00000C00000F1CFFF920F931F93CF93DF93F4
:1003D00010E06894FF24F7F800E0812F0E948A0261
:1003E00080E00E948F0280E00E949D02CF2DD02FDE
:1003F00080E00E94690221972097D1F71F5F143097
:1004000061F780E090E0DF91CF911F910F91FF9015
:100410000895AF92BF92CF92DF92EF92FF920F9327
:100420001F93CF93DF93C62F6A010E948A028C2FFD
:100430000E948F02E12CF12CA12CB12C1CC0F801E0
:10044000808190E08097FC01EE0FFF1FEE0FFF1FF1
:10045000E80FF91FEC0FFD1FE859FF4F84910E9430
:1004600069022196C530D10551F780E00E946902EA
:10047000FFEFEF1AFF0A8701F60101900020E9F76C
:100480003197EC19FD09EE16FF0628F4CA2DDB2D75
:100490000C0D1D1DD4CF80E090E0DF91CF911F9116
:1004A0000F91FF90EF90DF90CF90BF90AF900895A5
:1004B000CF93DF931F92CDB7DEB7898342984098E0
:1004C000CE0101960E944401429A0F90DF91CF9194
:1004D0000895CF93DF931F92CDB7DEB789834298FB
:1004E000409ACE0101960E9444014098429A0F9092
:1004F000DF91CF910895419887EA91E60197F1F74E
:1005000000C00000419A87EA91E60197F1F700C028
:10051000000008958F70806B0E9458020895CF9359
:10052000C82F8F7782958F7080610E9458028C2F20
:100530008F700E945802CF9108958F7380640E943B
:10054000580208958FEA0E9458020895CF938E3181
:1005500008F48EE1C82F893208F0C8E281E80E94D1
:1005600058028C2F80958F730E9458028C2FCF9148
:10057000089586EA0E94580208950E947B024098DE
:1005800080EA0E9458020E94B90288EC0E94580238
:1005900082EA0E9458028FE20E94580288EF0E946D
:1005A000580280E00E94580281E20E9458028EE1C7
:1005B0000E94A6020E94A2020895299A0895CF934C
:1005C000DF93C82FD0E0CE010E9444018881DF91E3
:1005D000CF9108952A9880E50E94DF0283E70E9468
:1005E000DF022A9A08952A980E94DF0280E00E9482
:1005F000DF022A9A089583E00E94F3028E5F089535
:10060000CF93DF93D62F2A98803240F4805E0E94E9
:10061000DF02C82F8D2F0E94DF0210C09FE1980FCC
:10062000933048F08F3F39F00E94DF02C82F8D2FA2
:100630000E94DF0203C00E94DF02C82F2A9A8C2F7B
:10064000DF91CF910895CF93C82F80E00E94F302ED
:10065000837FCC0FCC0F6C2F682B80E00E940003AF
:10066000CF9108951F93CF93DF93C82F162F863015
:1006700018F08F3F39F135C082E00E94F30221E08B
:1006800030E0A90102C0440F551FCA95E2F7EA0104
:10069000642F682B82E00E940003112349F081E05F
:1006A0000E94F3026C2F682B81E00E94000319C0A6
:1006B00081E00E94F302C095682F6C2381E00E94C4
:1006C00000030FC06FE382E00E940003112329F0B2
:1006D0006FE381E00E94000304C060E081E00E94BB
:1006E0000003DF91CF911F910895CF93C82F8630DB
:1006F00018F08F3FE1F023C082E00E94F30221E076
:1007000030E0B90102C0660F771FCA95E2F7C62F25
:10071000C095682F6C2382E00E94000381E00E9454
:10072000F302682F6C2381E00E94000308C060E0A0
:1007300082E00E94000360E081E00E940003CF910C
:100740000895482F9B0136952795A3E1B3E80E94B1
:10075000A2040024880F991F001C880F991F001CF9
:10076000892F902D6FEF680F6295607F642B84E076
:100770000E94000308956EEF680F83E00E9400035B
:1007800008958F5E0E9400030895813049F480E04F
:100790000E94F302682F616080E00E9400030895C8
:1007A00080E00E94F302682F6E7F80E00E940003C9
:1007B0000895813049F480E00E94F302682F62605E
:1007C00080E00E940003089580E00E94F302682FF9
:1007D0006D7F80E00E9400030895682F85E00E94ED
:1007E00000030895682F6F738CE10E940003089541
:1007F0008DE10E94F302682F64608DE10E94000386
:1008000008958DE10E94F302682F62608DE10E94DD
:1008100000030895FF920F931F93CF93DF93C82F88
:10082000F62E072F142F863039F018F4823060F43A
:1008300003C0873061F008C00E94FB02182F2A987D
:100840008AE28C0F0E94DF02111106C00CC02A98A8
:1008500080EA0E94DF02F8CFCF2DD02F89910E942D
:10086000DF021150D9F72A9ADF91CF911F910F9192
:10087000FF900895863018F4823018F006C0863054
:1008800049F440E00E940A040895FB016081865FFC
:100890000E94000308958093380108951F93CF9319
:1008A000DF93EC01162F8FEF0E94750361E080E06B
:1008B0000E94320383E00E9423036AEF70E08FE01E
:1008C0000E94A10385E00E94BB03BE0186E00E9456
:1008D0003A04BE0180E00E943A040E9401048DE1C6
:1008E0000E94F302811109C08CE10E94F302811180
:1008F00004C00E94EA020E9401040E94F8038FE3F0
:100900000E94F203111104C080E00E94C50307C0D9
:1009100081E00E94C5036AE080E00E94C10388E292
:100920000E94ED0381E00E94D90383EF91E00197DB
:10093000F1F700C0000080E00E944B04DF91CF91EE
:100940001F910895A29FB001B39FC001A39F700D96
:10095000811D1124911DB29F700D811D1124911DC7
:060960000895F894FFCF9A
:10096600000000010000000000007301000000000C
:10097600000200000000630100000000EB01EB0232
:10098600EB68656C6C6F2069736D207472616E73B1
:080996006365697665722100BA
:00000001FF
