S016000069736D5F7472616E6365697665722E7372656333
S11300000C9434000C9451000C9451000C949605FB
S11300100C9451000C9451000C9451000C94510018
S11300200C9451000C9460060C9451000C945100F3
S11300300C9451000C9451000C9451000C945100F8
S11300400C9451000C9451000C9451000C945100E8
S11300500C9451000C9451000C9451000C945100D8
S11300600C9451000C94510011241FBECFEFD8E022
S1130070DEBFCDBF11E0A0E0B1E0E4EBF1E102C0EE
S113008005900D92A634B107D9F721E0A6E4B1E0BA
S113009001C01D92A336B207E1F70E94E8020C9456
S11300A0D8080C940000ECEBF0E0108294EA908302
S11300B090819923ECF79091B900987F9830A9F436
S11300C08093BB0084E88093BC00ECEBF0E080817B
S11300D08823ECF72091B900287F283149F081E08A
S11300E090E0203439F480E0089581E090E00895B0
S11300F080E090E008958093BB0084E88093BC0086
S1130100ECEBF0E080818823ECF79091B900987FC4
S113011021E030E0983211F420E030E0C901089584
S11301208AE08093B80080E090E00895CF92DF9257
S1130130EF92FF920F931F93CF93DF93C62F6A0121
S1130140122F0E945300892BE1F48C2F0E947B0014
S11301507C01892BD1F4112381F0E6011150012F88
S113016010E00F5F1F4F0C0D1D1D89910E947B0035
S1130170892B79F4C017D107C1F784E98093BC00B7
S11301800BC0EE24E394F12C07C0EE24E394F12C8D
S113019003C0EE24E394F12CC701DF91CF911F91AA
S11301A00F91FF90EF90DF90CF900895EF92FF9220
S11301B00F931F93CF93DF93C82FF62E8A01E22E5D
S11301C00E945300892BE1F58F2D0E947B00892B1F
S11301D0D1F58C2F81600E945300BC01892BB1F5AD
S11301E04E2D50E04150510914161506ACF430E080
S11301F0ECEBF0E024ECCBEBD0E0D801A30FB11D85
S1130200208390819923ECF788818C933F5F832F1F
S113021090E0841795078CF3EE2DF0E03197E00F12
S1130220F11F84E88093BC00ACEBB0E08C91882390
S1130230ECF78091BB00808384E98093BC0008C004
S113024061E070E005C061E070E002C061E070E070
S1130250CB01DF91CF911F910F91FF90EF90089503
S1130260EF92FF920F931F93CF93DF93C82FF62E35
S11302708A01E22E0E945300892B09F043C08F2D7E
S11302800E947B00892B09F040C083EC99E0019720
S1130290F1F700C000008C2F81600E945300BC0164
S11302A0892BB1F54E2D50E0415051091416150615
S11302B0ACF430E0ECEBF0E024ECCBEBD0E0D80194
S11302C0A30FB11D208390819923ECF788818C932F
S11302D03F5F832F90E0841795078CF3EE2DF0E0B9
S11302E03197E00FF11F84E88093BC00ACEBB0E0E1
S11302F08C918823ECF78091BB00808384E9809300
S1130300BC0008C061E070E005C061E070E002C0BC
S113031061E070E0CB01DF91CF911F910F91FF90CD
S1130320EF900895E8E6F0E0808181608083EBE659
S1130330F0E080818160808380E090E008958CE526
S11303408CBD81E08DBD80E090E0089580E58CBD9A
S113035080E090E00895FC0120812EBD0DB407FEDD
S1130360FDCF2EB5FC01208380E090E0089510922B
S1130370C5008CE08093C400E0ECF0E080818260F2
S1130380808386E08093C20088E18093C10080E08E
S113039090E00895CF93C82F8A3019F48DE00E941D
S11303A0CA01E0ECF0E0908195FFFDCFC093C60058
S11303B0CF910895E0ECF0E080818823ECF7809100
S11303C0C6000895CF93DF9300D0CDB7DEB722E007
S11303D0AE014F5F5F4F6FEF80E80E94D600892B1C
S11303E0D9F4898190E0982F88272A81822B80353F
S11303F09041A9F419821A8222E0AE014F5F5F4F47
S113040062E080E80E94960031E020E0892B09F444
S113041030E0832F922F05C081E090E002C081E09C
S113042090E00F900F90DF91CF9108958F929F925B
S1130430AF92BF92CF92DF92EF92FF920F931F93EE
S1130440CF93DF9300D0CDB7DEB76C017B0122E000
S1130450AE014F5F5F4F60E080E80E9430018C0185
S1130460892B59F5A981B0E0BA2FAA278A81A82B34
S113047025EA30E00E94A1080E94970720E03FEFA0
S11304804FE757E40E94F60620E030E040E252E4F1
S11304900E9489064B015C010E946807F601608393
S11304A020E030E040E251E4C501B4010E94250897
S11304B00E946807F701608302C001E010E0C801F0
S11304C00F900F90DF91CF911F910F91FF90EF90BC
S11304D0DF90CF90BF90AF909F908F900895EF9250
S11304E0FF920F931F93CF93DF9300D0CDB7DEB766
S11304F07C0122E0AE014F5F5F4F61E080E80E9423
S113050030018C01892BB9F4A981B0E0BA2FAA2754
S11305108A81A82B24E630E00E94A1080E94970754
S113052020E03FEF4FE757E40E94F6060E94680779
S1130530F701608302C001E010E0C8010F900F9042
S1130540DF91CF911F910F91FF90EF90089587EA6B
S113055091E60197F1F700C00000539A549A52981B
S11305602098229A2A98219A299A2498239A259A9B
S11305700E949F01892B01F50E94B701892BF9F490
S1130580EDE5F1E08EE091E09383828380E091E0F9
S1130590918380830E949000892BA1F40E94E20140
S11305A0892B99F40E94920131E020E0892B09F40F
S11305B030E0832F922F089581E090E0089581E048
S11305C090E0089581E090E0089581E090E008953E
S11305D0CF93DF9300D000D01F92CDB7DEB785E074
S11305E0ECE1F1E0DE01119601900D928A95E1F7BC
S11305F00E94A702892B79F028E090E18BB1822731
S11306008BB98BB189278BB9E3EDF0E33197F1F71F
S113061000C00000F3CF78945B9A4A9923C087EA1C
S113062091E60197F1F700C000004A991BC05C9A5B
S11306305B9A81E00E949504E3ECF9E03197F1F7CD
S113064000C0000080E00E94810481E00E94DD047B
S113065086E00E94A903682F606886E00E94B603C2
S11306602A9AFFCF81E291E00E94A80860E0CE01BF
S113067001960E940C0603E511E0EE24E394FF24A6
S1130680FA940E94D9050E94CD058530D1F30E94C9
S1130690CD05823021F00E94CD05843009F45C9AA6
S11306A00E94CD05843029F480E00E94D005811198
S11306B05B9A87EA91E60197F1F700C000005C9825
S11306C05B98E7EAF1E63197F1F700C00000F80122
S11306D010824A9BE08265E571E084E591E00E9426
S11306E01602892B11F0F801F18286E591E00E944F
S11306F06F02892B11F0F801F3826AE0C8010E94AD
S1130700C1058EE291E00E94A808BBCFCF93DF938E
S11307101F92CDB7DEB789830E94A601CE01019650
S11307200E94AB0189810F90DF91CF9108952998A0
S113073080E60E94860380E00E948603299A089539
S1130740299880E50E94860383E70E948603299AFC
S1130750089529980E94860380E00E948603299ABE
S1130760089583E00E94A9038E5F0895CF93DF93D9
S1130770D62F2998803240F4805E0E948603C82FC9
S11307808D2F0E94860310C09FE1980F933048F08C
S11307908F3F39F00E948603C82F8D2F0E94860355
S11307A003C00E948603C82F299A8C2FDF91CF9112
S11307B0089560E787E00E94B60380770895CF9399
S11307C0C82F80E00E94A903837F6C2F660F660FF9
S11307D0682B80E00E94B603CF9108951F93CF93B6
S11307E0DF93C82F162F863018F08F3F39F135C0AC
S11307F082E00E94A90321E030E0A90102C0440F75
S1130800551FCA95E2F7EA01642F682B82E00E9423
S1130810B603112349F081E00E94A9036C2F682BD1
S113082081E00E94B60319C081E00E94A903C0952B
S1130830682F6C2381E00E94B6030FC06FE382E04F
S11308400E94B603112329F06FE381E00E94B603EE
S113085004C060E081E00E94B603DF91CF911F9154
S11308600895CF93C82F863018F08F3FD9F022C057
S113087082E00E94A90361E070E002C0660F771F66
S1130880CA95E2F7C62FC095682F6C2382E00E94B8
S1130890B60381E00E94A903682F6C2381E00E94C3
S11308A0B60308C060E082E00E94B60360E081E025
S11308B00E94B603CF910895482F9B013695279542
S11308C0A3E1B3E80E9492080024880F991F001C3A
S11308D0880F991F001C892F902D2FEF280F229528
S11308E0207F622F642B84E00E94B60308956EEF8C
S11308F0680F83E00E94B60308958F5E0E94B603DA
S11309000895813049F480E00E94A903682F616052
S113091080E00E94B603089580E00E94A903682F36
S11309206E7F80E00E94B6030895813049F480E030
S11309300E94A903682F626080E00E94B6030895B4
S113094080E00E94A903682F6D7F80E00E94B603B7
S11309500895682F85E00E94B6030895682F6F7389
S11309608CE10E94B60308958DE10E94A903682FCB
S113097064608DE10E94B60308958DE10E94A9038D
S1130980682F62608DE10E94B603089560E081EEF5
S11309900E94B603089560E08FEF0E94B6030895A5
S11309A00E94CB048E70869508950E94D00491E035
S11309B0873009F090E0892F0895813049F486E06A
S11309C00E94A903682F606186E00E94B60308951F
S11309D086E00E94A903682F6F7E86E00E94B6031A
S11309E00895CF92DF92EF92FF920F931F93CF93CC
S11309F0DF93F82E6B0186E0F81651F08F1520F086
S1130A0081E08F15E0F004C088E0F81651F017C0BB
S1130A100E94B103E82E29988AE08F0D0E94860374
S1130A200FC00E94D004F82E86E08F15E0F00E94DB
S1130A309703E82E299881E60E94860301C0E12CE1
S1130A409FEF9E0DEE2081F0E601092F10E00F5F6D
S1130A501F4F0C0D1D1D80E00E9486038993C01753
S1130A60D107C9F701C0E12C299A8E2D90E09F2966
S1130A70DF91CF911F910F91FF90EF90DF90CF9076
S1130A800895BC0188E00E94F1040895EF92FF925A
S1130A900F931F93CF93DF93C82F7B01D42F8630FE
S1130AA039F018F4823060F403C0873071F008C064
S1130AB00E94B103D82F29988AE28C0F0E948603E2
S1130AC09FEF9D0FD11106C012C0299880EA0E94A1
S1130AD08603F6CFE701092F10E00F5F1F4F0E0DBD
S1130AE01F1D89910E948603C017D107D1F7299A47
S1130AF0DF91CF911F910F91FF90EF900895863071
S1130B0018F4823018F006C0863049F440E00E94A0
S1130B1046050895FB016081865F0E94B60308952F
S1130B20462FBC0187E00E94460508951F920F924C
S1130B300FB60F9211242F933F934F935F936F93AC
S1130B407F938F939F93AF93BF93EF93FF9381E32F
S1130B5091E00E94A808189903C081E08093510194
S1130B60FF91EF91BF91AF919F918F917F916F9181
S1130B705F914F913F912F910F900FBE0F901F9057
S1130B8018950E9490052A9A80E18A95F1F700C091
S1130B902A9885E08093460108958091460108953E
S1130BA0E82FF0E0E95BFE4F8081089580934601D1
S1130BB00895189930C00E94D903803279F018F44E
S1130BC0803131F026C0803489F08036D9F021C0DC
S1130BD00E94C60481E0809346011BC082E080939A
S1130BE0460117C087E491E00E9441050E94D504A4
S1130BF08823C1F383E0809346010BC087E491E02E
S1130C000E9441050E94D5048823C1F384E08093A7
S1130C1046011092510108951F93CF93DF93EC0185
S1130C20162F8FEF0E94310461E080E00E94EE03F2
S1130C3083E00E94DF036AEF70E08FE00E945C04AF
S1130C4085E00E947704BE0186E00E947F05BE0114
S1130C5080E00E947F050E94BD048DE10E94A903EB
S1130C60811109C08CE10E94A903811104C00E9472
S1130C70A0030E94BD040E94B4048FE30E94AE044A
S1130C80111104C080E00E94810407C081E00E9429
S1130C9081046AE080E00E947D0488E20E94A90445
S1130CA081E00E94950483EF91E00197F1F700C081
S1130CB0000080E00E94D605DF91CF911F91089536
S1130CC01F920F920FB60F9211242F933F934F93BD
S1130CD05F936F937F938F939F93AF93BF93EF93A0
S1130CE0FF9381E0809352018BE391E00E94A80876
S1130CF0FF91EF91BF91AF919F918F917F916F91F0
S1130D005F914F913F912F910F900FBE0F901F90C5
S1130D1018955058BB27AA270E94A1060C94EB07EC
S1130D200E94DD0738F00E94E40720F039F49F3F69
S1130D3019F426F40C94DA070EF4E095E7FB0C940E
S1130D40D407E92F0E94FC0758F3BA176207730708
S1130D508407950720F079F4A6F50C941E080EF488
S1130D60E0950B2EBA2FA02D0B01B90190010C01B7
S1130D70CA01A0011124FF27591B99F0593F50F4CF
S1130D80503E68F11A16F040A22F232F342F442727
S1130D90585FF3CF469537952795A795F04053951F
S1130DA0C9F77EF41F16BA0B620B730B840BBAF0EF
S1130DB09150A1F0FF0FBB1F661F771F881FC2F75A
S1130DC00EC0BA0F621F731F841F48F4879577956E
S1130DD06795B795F7959E3F08F0B0CF9395880F28
S1130DE008F09927EE0F9795879508950E940A07B2
S1130DF00C94EB070E94E40758F00E94DD0740F0D2
S1130E0029F45F3F29F00C94D40751110C941F0866
S1130E100C94DA070E94FC0768F39923B1F3552375
S1130E2091F3951B550BBB27AA27621773078407F9
S1130E3038F09F5F5F4F220F331F441FAA1FA9F38F
S1130E4035D00E2E3AF0E0E832D091505040E6957D
S1130E50001CCAF72BD0FE2F29D0660F771F881FDE
S1130E60BB1F261737074807AB07B0E809F0BB0BD1
S1130E70802DBF01FF2793585F4F3AF09E3F5105E5
S1130E8078F00C94D4070C941F085F3FE4F3983E69
S1130E90D4F3869577956795B795F7959F5FC9F7CE
S1130EA0880F911D9695879597F90895E1E0660F4F
S1130EB0771F881FBB1F621773078407BA0720F0C8
S1130EC0621B730B840BBA0BEE1F88F7E095089531
S1130ED00E94040888F09F5798F0B92F9927B751BA
S1130EE0B0F0E1F0660F771F881F991F1AF0BA95CA
S1130EF0C9F714C0B13091F00E941E08B1E0089502
S1130F000C941E08672F782F8827B85F39F0B93FF3
S1130F10CCF3869577956795B395D9F73EF490957C
S1130F208095709561957F4F8F4F9F4F0895E894FA
S1130F3009C097FB3EF490958095709561957F4F1D
S1130F408F4F9F4F9923A9F0F92F96E9BB279395CB
S1130F50F695879577956795B795F111F8CFFAF4DB
S1130F60BB0F11F460FF1BC06F5F7F4F8F4F9F4F0C
S1130F7016C0882311F096E911C0772321F09EE86A
S1130F80872F762F05C0662371F096E8862F70E0D0
S1130F9060E02AF09A95660F771F881FDAF7880FAA
S1130FA09695879597F9089597F99F6780E870E07B
S1130FB060E008959FEF80EC089500240A941616CB
S1130FC0170618060906089500240A941216130633
S1130FD0140605060895092E0394000C11F48823C1
S1130FE052F0BB0F40F4BF2B11F460FF04C06F5FDD
S1130FF07F4F8F4F9F4F089557FD9058440F551FB3
S113100059F05F3F71F04795880F97FB991F61F086
S11310109F3F79F087950895121613061406551FFD
S1131020F2CF4695F1DF08C0161617061806991F69
S1131030F1CF86957105610508940895E894BB275E
S113104066277727CB0197F908950E9438080C94F6
S1131050EB070E94DD0738F00E94E40720F0952397
S113106011F00C94D4070C94DA0711240C941F0883
S11310700E94FC0770F3959FC1F3950F50E0551F34
S1131080629FF001729FBB27F00DB11D639FAA27D9
S1131090F00DB11DAA1F649F6627B00DA11D661F28
S11310A0829F2227B00DA11D621F739FB00DA11D49
S11310B0621F839FA00D611D221F749F3327A00D03
S11310C0611D231F849F600D211D822F762F6A2F9F
S11310D011249F5750409AF0F1F088234AF0EE0F04
S11310E0FF1FBB1F661F771F881F91505040A9F731
S11310F09E3F510580F00C94D4070C941F085F3F69
S1131100E4F3983ED4F3869577956795B795F7956C
S1131110E7959F5FC1F7FE2B880F911D96958795E4
S113112097F90895A29FB001B39FC001A39F700DCA
S1131130811D1124911DB29F700D811D1124911DDB
S113114008950E949208B7FF0895821B930B089597
S11311500F931F93CF93DF93E0915F01F0916001B0
S1131160238121FF1BC08C01D0E0C0E0F8018191F4
S11311708F0160915F0170916001DB011896ED9120
S1131180FC911997882331F00995892B79F3DFEFC6
S1131190CFEFECCF8AE00995892B19F08FEF9FEF01
S11311A002C08D2F9C2FDF91CF911F910F91089535
S10711B0F894FFCFDD
S11311B400000001000000000000DA01000000004B
S11311C4000200000000CA0100000000EB01EB0271
S11311D4EB73656E736F7220626F6172640074786E
S11311E400726164696F20697271007469636B2CA5
S10911F4207461636B002E
S9030000FC
